{
  "contractName": "SafeMathLib",
  "abi": [
    {
      "constant": true,
      "inputs": [
        {
          "name": "a",
          "type": "uint256"
        },
        {
          "name": "b",
          "type": "uint256"
        }
      ],
      "name": "times",
      "outputs": [
        {
          "name": "",
          "type": "uint256"
        }
      ],
      "payable": false,
      "stateMutability": "pure",
      "type": "function"
    },
    {
      "constant": true,
      "inputs": [
        {
          "name": "a",
          "type": "uint256"
        },
        {
          "name": "b",
          "type": "uint256"
        }
      ],
      "name": "minus",
      "outputs": [
        {
          "name": "",
          "type": "uint256"
        }
      ],
      "payable": false,
      "stateMutability": "pure",
      "type": "function"
    },
    {
      "constant": true,
      "inputs": [
        {
          "name": "a",
          "type": "uint256"
        },
        {
          "name": "b",
          "type": "uint256"
        }
      ],
      "name": "plus",
      "outputs": [
        {
          "name": "",
          "type": "uint256"
        }
      ],
      "payable": false,
      "stateMutability": "pure",
      "type": "function"
    }
  ],
  "bytecode": "0x6101d8610030600b82828239805160001a6073146000811461002057610022565bfe5b5030600052607381538281f300730000000000000000000000000000000000000000301460806040526004361061006e576000357c0100000000000000000000000000000000000000000000000000000000900463ffffffff1680631d3b9edf1461007357806366098d4f146100b1578063f4f3bdc1146100ef575b600080fd5b61009b600480360381019080803590602001909291908035906020019092919050505061012d565b6040518082815260200191505060405180910390f35b6100d96004803603810190808035906020019092919080359060200190929190505050610163565b6040518082815260200191505060405180910390f35b6101176004803603810190808035906020019092919080359060200190929190505050610190565b6040518082815260200191505060405180910390f35b6000808284029050600084148061014e575082848281151561014b57fe5b04145b151561015957600080fd5b8091505092915050565b600080828401905083811015801561017b5750828110155b151561018657600080fd5b8091505092915050565b60008282111515156101a157600080fd5b8183039050929150505600a165627a7a72305820d7d330be4403d6f9a0d5eee6edb5699e451e640ce690d82b654a6ffe4a901f760029",
  "source": "pragma solidity ^0.4.24;\n\nlibrary SafeMathLib {\n    function times(uint a, uint b) public pure returns (uint) {\n        uint c = a * b;\n        require(a == 0 || c / a == b);\n        return c;\n    }\n\n    function minus(uint a, uint b) public pure returns (uint) {\n        require(b <= a);\n        return a - b;\n    }\n\n    function plus(uint a, uint b) public pure returns (uint) {\n        uint c = a + b;\n        require(c>=a && c>=b);\n        return c;\n    }\n}",
  "sourcePath": "E:\\MyFiles\\Codes\\Blockchain\\marketplace_dapp\\contracts\\SafeMathLib.sol",
  "compiler": {
    "name": "solc",
    "version": "0.4.24+commit.e67f0147.Emscripten.clang"
  },
  "schemaVersion": "2.0.1",
  "updatedAt": "2018-09-24T06:44:55.399Z"
}