{
  "contractName": "SafeMathLib",
  "abi": [
    {
      "constant": true,
      "inputs": [
        {
          "name": "a",
          "type": "uint256"
        },
        {
          "name": "b",
          "type": "uint256"
        }
      ],
      "name": "multiply",
      "outputs": [
        {
          "name": "",
          "type": "uint256"
        }
      ],
      "payable": false,
      "stateMutability": "pure",
      "type": "function"
    },
    {
      "constant": true,
      "inputs": [
        {
          "name": "a",
          "type": "uint256"
        },
        {
          "name": "b",
          "type": "uint256"
        }
      ],
      "name": "subtract",
      "outputs": [
        {
          "name": "",
          "type": "uint256"
        }
      ],
      "payable": false,
      "stateMutability": "pure",
      "type": "function"
    },
    {
      "constant": true,
      "inputs": [
        {
          "name": "a",
          "type": "uint256"
        },
        {
          "name": "b",
          "type": "uint256"
        }
      ],
      "name": "add",
      "outputs": [
        {
          "name": "",
          "type": "uint256"
        }
      ],
      "payable": false,
      "stateMutability": "pure",
      "type": "function"
    }
  ],
  "bytecode": "0x6101d8610030600b82828239805160001a6073146000811461002057610022565bfe5b5030600052607381538281f300730000000000000000000000000000000000000000301460806040526004361061006e576000357c0100000000000000000000000000000000000000000000000000000000900463ffffffff168063165c4a16146100735780633ef5e445146100b1578063771602f7146100ef575b600080fd5b61009b600480360381019080803590602001909291908035906020019092919050505061012d565b6040518082815260200191505060405180910390f35b6100d96004803603810190808035906020019092919080359060200190929190505050610163565b6040518082815260200191505060405180910390f35b610117600480360381019080803590602001909291908035906020019092919050505061017f565b6040518082815260200191505060405180910390f35b6000808284029050600084148061014e575082848281151561014b57fe5b04145b151561015957600080fd5b8091505092915050565b600082821115151561017457600080fd5b818303905092915050565b60008082840190508381101580156101975750828110155b15156101a257600080fd5b80915050929150505600a165627a7a723058206b39991106dd91a4f10cf8e224ed3fda9b38c004044bb301e0830fb2a89e1cd90029",
  "source": "pragma solidity ^0.4.24;\n\nlibrary SafeMathLib {\n    function multiply(uint a, uint b) public pure returns (uint) {\n        uint c = a * b;\n        require(a == 0 || c / a == b);\n        return c;\n    }\n\n    function subtract(uint a, uint b) public pure returns (uint) {\n        require(b <= a);\n        return a - b;\n    }\n\n    function add(uint a, uint b) public pure returns (uint) {\n        uint c = a + b;\n        require(c>=a && c>=b);\n        return c;\n    }\n    \n    function divide(uint256 a, uint256 b) internal pure returns (uint256) {\n        uint256 c = a / b;\n        return c;\n    }\n}",
  "sourcePath": "E:\\MyFiles\\Codes\\Blockchain\\marketplace_dapp\\contracts\\SafeMathLib.sol",
  "compiler": {
    "name": "solc",
    "version": "0.4.24+commit.e67f0147.Emscripten.clang"
  },
  "schemaVersion": "2.0.1",
  "updatedAt": "2018-09-25T04:45:08.875Z"
}